:10000000F2C0000000C10000FEC00000FCC0000003
:10001000FAC00000F8C00000F6C00000F4C0000004
:10002000F2C00000F0C00000FFC100003CC20000B0
:10003000EAC00000E8C00000E6C00000E4C0000024
:10004000E2C00000E0C00000DEC00000DCC0000034
:10005000DAC00000D8C00000D6C00000D4C0000044
:10006000D2C00000D0C00000CEC00000CCC0000054
:10007000CAC00000C8C00000C6C00000C4C0000064
:10008000C2C00000C0C00000BEC00000BCC0000074
:10009000BAC00000B8C00000B6C00000B4C0000084
:1000A000B2C00000B0C00000AEC000004284A48313
:1000B0000124C3040274A344C282E364D4430381D1
:1000C00023146394B4C40A000A00206469740020F5
:1000D000646168004368617220000A004F707073A9
:1000E0002C20756E737570706F7274656420636810
:1000F000617261637465723A200053706163650ACE
:1001000000444F455320414E59424F4459205354C7
:10011000494C4C204B4E4F57204D4F525345204396
:100120004F44453F00534F5300000100006001124F
:10013000000200007201220022000094011500213B
:10014000000084010900030000A90104010309045F
:10015000AD011402030904C30120000001C12600FF
:100160001201000200000020C01679040001010203
:10017000000109022200010100C03209040000014F
:100180000300000009211101000122150007058369
:10019000032000010631FF0974A1537508150026DC
:1001A000FF00952009758102C00403090414035956
:1001B000006F007500720020004E0061006D006548
:1001C000000000200359006F0075007200200055E8
:1001D000005300420020004400650076006900637F
:1001E00000650000000011241FBECFEFDAE0DEBF83
:1001F000CDBF11E0A0E0B1E001C01D92A330B10776
:10020000E1F774D0A7C2FCCE0F931F93182F803252
:1002100059F48AEF90E092D08FEF97E5ABE18150EF
:100220009040A040E1F74DC081548A3148F08CEDF8
:1002300090E084D0812FB2D08AED90E07FD043C08F
:1002400084ED90E07BD0812FA9D08AE3A7D0E12F65
:10025000F0E0E559FF4F1491012F077026C05E9A18
:1002600017FF0BC08FEC90E069D08FEF97EBABE0FE
:1002700081509040A040E1F70AC08AEC90E05ED047
:100280008FEF97EEA3E081509040A040E1F700C0CF
:1002900000005E988FEF97EEA3E081509040A04061
:1002A000E1F700C00000110F01500023C1F688ECF7
:1002B00090E044D08FEF9FECA7E081509040A040A9
:1002C000E1F700C000001F910F910895CF93DF93D5
:1002D000EC01FE0121968491882311F095DFF9CF7E
:1002E00086EC90E02BD0DF91CF9108951F9380E8AA
:1002F0008093610010926100569A5E9838D010E0A9
:100300000DC085E291E0E2DF8FEF9DE3A9E481502B
:100310009040A040E1F700C000001F5F163088F356
:1003200081E091E0D3DF8FEF9FE4A3EC8150904018
:10033000A040E1F700C0000010E0E3CF1F93CF938F
:10034000DF93EC01FE0121961491112339F01A304C
:1003500011F48DE023D0812F21D0F4CFDF91CF9104
:100360001F9108958091E80080FFFCCF089581E0FF
:100370008093D70080EA8093D80082E189BD09B4D8
:1003800000FEFDCF80E98093D8001092E00010922B
:1003900000018CE08093E200789408959091000130
:1003A000992309F43DC09FB7F89423E02093E90016
:1003B00020910201222341F02091E80025FD02C096
:1003C0009FBF2EC0109202012091E4002C5F33E009
:1003D0004091E80045FD12C09FBF9091E400921744
:1003E00021F481E0809302011BC0909100019923C8
:1003F000C9F09FB7F8943093E900EACF8093F100F9
:100400008091E80085FD06C08AE38093E8001092A1
:10041000010103C082E0809301019FBF80E0089545
:100420008FEF08958FEF08951F920F920FB60F92DE
:1004300011248F939F938091E1001092E10083FF3C
:100440000FC01092E90091E09093EB001092EC0045
:1004500092E29093ED0098E09093F00010920001EA
:1004600082FF1AC0809100018823B1F080910101C0
:10047000882391F0815080930101882369F483E0FF
:100480008093E90002C01092F1008091E80085FDA0
:10049000FACF8AE38093E8009F918F910F900FBE6F
:1004A0000F901F9018951F920F920FB60F92112464
:1004B000EF92FF920F931F932F933F934F935F936E
:1004C0006F937F938F939F93AF93BF93EF93FF931C
:1004D000DF93CF930F92CDB7DEB71092E9008091F2
:1004E000E80083FF1CC14091F1005091F1000091A0
:1004F000F10010E02091F100922F80E0082B192BE1
:100500008091F100E82EFF242091F100922F80E0ED
:10051000E82AF92A2091F10030E06091F100962F4D
:1005200080E0282B392B82EF8093E800563009F0C9
:1005300053C080E391E0AC0145505040FC01379737
:100540006591749160177107C9F4FA01659174910E
:100550006E157F0599F44E5F5F4FFA018591949176
:100560004E5F5F4FFA0144912F3F310519F010F0B3
:100570002FEF30E0241750F4422F08C00796495F50
:100580005F4FF1E081369F07C9F6C9C0AEEF2091F9
:10059000E80030E0B9016570707061157105B9F35C
:1005A00022FDC0C0542F413208F050E29C01652F5B
:1005B00007C0F9012F5F3F4FE491E093F1006150D4
:1005C0006623B9F7850F911D451BA093E8004423CE
:1005D000F1F65032E1F2A6C0553041F48EEF80932F
:1005E000E800C0DE00680093E3009CC0593031F59C
:1005F000442309F094C0009300018EEF8093E8003B
:1006000041E08AE591E04093E900FC010196E49124
:10061000E093EB00EE2369F09C012F5F3F4FFC015C
:1006200084918093EC00C9010196F90124912093F3
:10063000ED004F5F453039F78EE146C0583049F440
:10064000403809F06CC08EDE809100018093F1008B
:1006500016C05523C1F4498385DE4981423851F4DF
:10066000E092E9009091EB0081E095FF80E010922C
:10067000E90001C080E08093F1001092F1008EEF5C
:100680008093E8004FC0513019F0533009F047C053
:100690004230F9F401151105E1F46E2D6F77862FC4
:1006A00081508430B0F48EEF8093E8006093E900CD
:1006B0005330A9F189E18093EB0081E090E002C022
:1006C000880F991F6A95E2F78093EA001092EA007A
:1006D00029C0513021F5413A11F5E114F104F9F442
:1006E0003EEF8091E80090E0AC01457050704115FC
:1006F0005105B9F382FD16C0822F213208F080E245
:10070000982F03C01092F10091509923D9F7281B1C
:100710003093E800222329F7803219F303C081E2E5
:100720008093EB000F90CF91DF91FF91EF91BF91FC
:10073000AF919F918F917F916F915F914F913F9179
:100740002F911F910F91FF90EF900F900FBE0F9080
:080750001F901895F894FFCFEB
:00000001FF
