:10000000B3C00000CCC00000CAC00000C8C00000DF
:10001000C6C00000C4C00000C2C00000C0C00000D4
:10002000BEC00000BCC000008FC10000CCC10000F9
:10003000B6C00000B4C00000B2C00000B0C00000F4
:10004000AEC00000ACC00000AAC00000A8C0000004
:10005000A6C00000A4C00000A2C00000A0C0000014
:100060009EC000009CC000009AC0000098C0000024
:1000700096C0000094C0000092C0000090C0000034
:100080008EC000008CC000008AC0000088C0000044
:1000900086C0000084C0000082C0000080C0000054
:1000A0007EC000007CC000007AC00000000100009B
:1000B000E3001200020000F50022002200001701F8
:1000C0001500210000070109000300002C010401B4
:1000D0000309043001140203090446012000000151
:1000E000C126001201000200000020C016790400A1
:1000F000010102000109022200010100C0320904CD
:100100000000010300000009211101000122150077
:10011000070583032000010631FF0974A153750808
:10012000150026FF00952009758102C0040309040B
:10013000140359006F007500720020004E0061002A
:100140006D0065000000200359006F00750072000B
:100150002000550053004200200044006500760056
:10016000690063006500000011241FBECFEFDAE0D4
:10017000DEBFCDBF11E0A0E0B1E0E8E7F6E002C0ED
:1001800005900D92A031B107D9F711E0A0E1B1E0DF
:1001900001C01D92A331B107E1F720D06BC230CF6F
:1001A00080E88093610010926100B4D0CAD08823A7
:1001B000E9F38FEF93EDA0E381509040A040E1F789
:1001C00000C0000080E8809361001092610090B34D
:1001D00081B39C7E90BB8C7E81BB08954F925F92D1
:1001E0006F927F928F929F92AF92BF92CF92DF9247
:1001F000EF92FF920F931F93CF93DF93D1DF0FEF17
:1002000011EF2BE2015010402040E1F700C0000048
:100210005CE0652E51E0752E80E090E0DD24D39403
:10022000FD2C40E0442E41E0542E480E591E36E08D
:10023000A32E31E0B32EA80EB91E5AC0D201CD9123
:10024000DC91F301E08048814E294883F501A081CB
:10025000B1814C914E294C936F2D70E0AB01440F4E
:10026000551FFA01E050FF4F80809180645F7E4F00
:10027000FB016081F4017081762B70834A5F5E4FD1
:10028000FA0140815181762F7095FA01C080C72212
:10029000C0820FEF10E722E0015010402040E1F74C
:1002A00000C00000C880CE28C882E094CC90CE2048
:1002B000CC92F401C080C62AC082FA01C080C62A4E
:1002C000C0820FEF10E722E0015010402040E1F71C
:1002D00000C0000068816E2168836C916E216C9370
:1002E000D4016C9167236C93608167236083F394DE
:1002F000FF2DF33008F4A2CF02960894611C711C04
:100300000D2D033009F08BCF7ACF8091E80080FF6C
:10031000FCCF089581E08093D70080EA8093D800D5
:1003200082E189BD09B400FEFDCF80E98093D80049
:100330001092E000109210018CE08093E20078941B
:1003400008958091100108951F920F920FB60F9299
:1003500011248F939F938091E1001092E10083FF1D
:100360000FC01092E90091E09093EB001092EC0026
:1003700092E29093ED0098E09093F00010921001BB
:1003800082FF1AC0809110018823B1F08091110181
:10039000882391F0815080931101882369F483E0D0
:1003A0008093E90002C01092F1008091E80085FD81
:1003B000FACF8AE38093E8009F918F910F900FBE50
:1003C0000F901F9018951F920F920FB60F92112445
:1003D000EF92FF920F931F932F933F934F935F934F
:1003E0006F937F938F939F93AF93BF93EF93FF93FD
:1003F000DF93CF930F92CDB7DEB71092E9008091D3
:10040000E80083FF1CC14091F1005091F100009180
:10041000F10010E02091F100922F80E0082B192BC1
:100420008091F100E82EFF242091F100922F80E0CE
:10043000E82AF92A2091F10030E06091F100962F2E
:1004400080E0282B392B82EF8093E800563009F0AA
:1004500053C083EB90E0AC0145505040FC0137970E
:100460006591749160177107C9F4FA0165917491EF
:100470006E157F0599F44E5F5F4FFA018591949157
:100480004E5F5F4FFA0144912F3F310519F010F094
:100490002FEF30E0241750F4422F08C00796495F31
:1004A0005F4FF0E0843E9F07C9F6C9C0AEEF2091D0
:1004B000E80030E0B9016570707061157105B9F33D
:1004C00022FDC0C0542F413208F050E29C01652F3C
:1004D00007C0F9012F5F3F4FE491E093F1006150B5
:1004E0006623B9F7850F911D451BA093E8004423AF
:1004F000F1F65032E1F2A6C0553041F48EEF809310
:10050000E80003DF00680093E3009CC0593031F538
:10051000442309F094C0009310018EEF8093E8000B
:1005200041E08DED90E04093E900FC010196E491FB
:10053000E093EB00EE2369F09C012F5F3F4FFC013D
:1005400084918093EC00C9010196F90124912093D4
:10055000ED004F5F453039F78EE146C0583049F421
:10056000403809F06CC0D1DE809110018093F10019
:1005700016C05523C1F44983C8DE4981423851F47D
:10058000E092E9009091EB0081E095FF80E010920D
:10059000E90001C080E08093F1001092F1008EEF3D
:1005A0008093E8004FC0513019F0533009F047C034
:1005B0004230F9F401151105E1F46E2D6F77862FA5
:1005C00081508430B0F48EEF8093E8006093E900AE
:1005D0005330A9F189E18093EB0081E090E002C003
:1005E000880F991F6A95E2F78093EA001092EA005B
:1005F00029C0513021F5413A11F5E114F104F9F423
:100600003EEF8091E80090E0AC01457050704115DC
:100610005105B9F382FD16C0822F213208F080E225
:10062000982F03C01092F10091509923D9F7281BFD
:100630003093E800222329F7803219F303C081E2C6
:100640008093EB000F90CF91DF91FF91EF91BF91DD
:10065000AF919F918F917F916F915F914F913F915A
:100660002F911F910F91FF90EF900F900FBE0F9061
:080670001F901895F894FFCFCC
:10067800300030003000310031003100010210003C
:00000001FF
